:100000000C946A1E0C949B1E0C949B1E0C949B1EBD
:100010000C949B1E0C949B1E0C949B1E0C949B1E7C
:100020000C949B1E0C949B1E0C949B1E0C949B1E6C
:100030000C949B1E0C942E940C949B1E0C949B1E53
:100040000C949B1E0C941F480C949B1E0C949B1E9E
:100050000C949B1E0C949B1E0C9462640C9441FDAA
:100060000C949B1E0C945CEB0C949B1E0C949B1E9E
:100070000C949B1E0C949B1E0C949B1E0C949B1E1C
:100080000C9426500C949B1E0C949B1E0C949B1E4F
:100090000C949B1E0C949B1E0C949B1E0C949B1EFC
:1000A0000C949B1E0C949B1E0C94F84F0C949B1E5E
:1000B0000C949B1E0C949B1E0C949B1E0C94CA4F7C
:1000C0000C949B1E0C949B1E0C949B1E0C949B1ECC
:1000D0000C949B1E0C949B1E0C949B1E0C949B1EBC
:1000E0000C949B1ED43FD93FDE3FE83FF23F6B406C
:1000F000FC3F04400C40164020402A403940434019
:100100006B404D405740614024C573C3ACC360C5CC
:10011000ACC3ACC3ACC3ACC3ACC3ACC3ACC3ACC367
:10012000ACC3ACC3ACC3ACC3ACC3ACC3ACC3ACC357
:10013000ACC3ACC3ACC3ACC3ACC3ACC3ACC3ACC347
:10014000ACC3ACC35AC5ACC3ACC3ACC3ACC3ACC387
:10015000ACC3ACC3ACC333C5ACC3ACC3ACC3ACC39E
:10016000ACC3ACC3ACC3ACC3ACC3ACC377C5A9C34D
:10017000ABFAAEFA9DFAA1FAA7FAE5FAB2FAB6FA24
:10018000BCFAC0FAC4FACAFACEFAD2FAE5FAD8FA38
:10019000DCFAE0FA084AD73B3BCE016E84BCBFFDD7
:1001A000C12F3D6C74319ABD56833DDA3D00C77F47
:1001B00011BED9E4BB4C3E916BAAAABE00000080E0
:1001C0003F05A84CCDB2D44EB93836A9020C50B96F
:1001D000918688083CA6AAAA2ABE000000803F009B
:1001E0000D941E0E0D948E0E4E414E494E4954599B
:1001F000494E46CDCCCC3D0AD7233C17B7D13877F2
:10020000CC2B329595E6241FB14F0A000020410007
:1002100000C84200401C4620BCBE4CCA1B0E5AAE51
:10022000C59D74434F4D4D554E49434154494F4E22
:100230000044525952554E004552524F52530049B4
:100240004E464F004543484F0047322F4733206208
:10025000616420706172616D65746572730A005328
:100260006C6565702E2E2E005A2070726F626520AC
:100270006F75742E206265640A005A2070726F6276
:1002800065206F75742E2062656400473238205AED
:1002900020466F7262696464656E0A0047323820D6
:1002A0005A20466F7262696464656E00205A3A2073
:1002B0000020593A200042656420583A20004D65DC
:1002C000736820706F696E742063616E6E6F742046
:1002D0006265207265736F6C7665640A00436F70A7
:1002E000794D6173746572203330302072656164BA
:1002F000792E00526573756D696E67207072696E34
:100300007400436C69636B20746F20726573756D44
:10031000652E2E2E004E6F206D6F76652E00456E79
:10032000642066696C65206C6973740A00426567B5
:10033000696E2066696C65206C6973740A005344A9
:10034000207072696E74696E67206279746520002E
:100350004E6F74205344207072696E74696E670A20
:10036000005072696E742074696D653A20004525ED
:100370006920257300436F70794D61737465722035
:100380003330302072656164792E0044023F0238B8
:1003900002310223026F66660044454255473A0027
:1003A0004B494C4C45442E20004D313133205300F5
:1003B0006F6B00436F70794D6173746572203330D9
:1003C000302072656164792E0050533A310A005032
:1003D000533A300A00436F70794D6173746572202F
:1003E000333030204F66662E002F2F20004D3134E1
:1003F0003520533C696E6465783E206F7574206FBC
:10040000662072616E67652028302D31290A0053FD
:10041000657474696E672054726176656C204163FF
:1004200063656C65726174696F6E3A200053657420
:1004300074696E67205265747261637420416363EE
:10044000656C65726174696F6E3A200053657474EF
:10045000696E67205072696E7420416363656C65D4
:10046000726174696F6E3A200053657474696E67C7
:10047000205072696E7420616E64205472617665DA
:100480006C20416363656C65726174696F6E3A20BC
:1004900000000136372603FF3C3D38FF0E2F303E6B
:1004A00012FFFF0C0809FFFFFF1A1C18FFFF08448A
:1004B0000AFF43FFFFFFFFFFFF206F7574206F6689
:1004C0002072616E67650A00536572766F20003A8C
:1004D000200020536572766F200043290A00616274
:1004E0006C656420286D696E2074656D7020004312
:1004F0006F6C6420657874727564657320617265D1
:1005000020004D65736820706F696E742063616EA2
:100510006E6F74206265207265736F6C7665640A15
:10052000004D34323120696E636F727265637420DE
:10053000706172616D657465722075736167650ABB
:10054000003A20007A5F6D696E3A20202D31352007
:100550007A5F6D61783A20203135005A204F666607
:1005600073657420004E6F2063617365206C69674A
:1005700068740A0041637469766520457874727501
:100580006465723A2000556E6B6E6F776E20636FF4
:100590006D6D616E643A2022004D36303020486F18
:1005A00074656E6420746F6F20636F6C6420746F69
:1005B000206368616E67652066696C616D656E7445
:1005C0000A0050726F7465637465642050696E0A26
:1005D000006D0046696C616D656E742075736564AD
:1005E0003A200053746174733A20002C204C6F6ED3
:1005F00067657374206A6F623A2000546F74616C8F
:100600002074696D653A200053746174733A200058
:100610002C204661696C65643A20002C2046696E86
:1006200069736865643A20005072696E74733A2089
:100630000053746174733A2000202F002042403A26
:100640000020403A0048656174696E6720646F6EEF
:10065000652E0020573A0045256920257300436F19
:1006600070794D617374657220333030207265612A
:1006700064792E0042656420646F6E652E002057F9
:100680003A004265642048656174696E672E0020F7
:100690005A3A0020593A0020436F756E7420583A38
:1006A0000020453A00205A3A0020593A00583A00B2
:1006B00057726974696E6720746F2066696C653A59
:1006C00020006F70656E206661696C65642C204641
:1006D000696C653A20006F70656E206661696C65B3
:1006E000642C2046696C653A200046696C6520736D
:1006F000656C65637465640A002053697A653A2005
:100700000046696C65206F70656E65643A20006F05
:1007100070656E206661696C65642C2046696C6545
:100720003A20002066696C653A20004E6F77200001
:100730002220706F73002220706172656E743A22FD
:1007400000535542524F5554494E452043414C4C5D
:10075000207461726765743A22004B494C4C4544E1
:100760002E2000747279696E6720746F2063616C4B
:100770006C207375622D67636F64652066696C65B4
:1007800073207769746820746F6F206D616E7920B3
:100790006C6576656C732E204D4158206C657665CE
:1007A0006C2069733A0043616E6E6F74206F7065E0
:1007B0006E20737562646972200053442063617215
:1007C00064206F6B0A006F70656E526F6F742066E5
:1007D00061696C65640A00766F6C756D652E696E73
:1007E0006974206661696C65640A004572726F7293
:1007F0003A00534420696E6974206661696C0A008E
:1008000024F4D43050C38E20C2A24017828B7011C2
:10081000127A910D816CD90AA861E108C758660760
:10082000615143061E4B5D05C145A7041A411104E1
:10083000093D9803713931034036DB02653391027B
:10084000D4305402802E1D02632CEE01752AC5019E
:10085000B028A001102781018F2564012B244B01B2
:10086000E0223401AC211F018D200D01801FFC000E
:10087000841EED00971DDF00B81CD200E61BC600E9
:10088000201BBC00641AB200B219A8000A19A0000B
:100890006A189900D117910040178B00B516840093
:1008A00031167E00B31579003A157300C7146F0036
:1008B00058146A00EE1366008813630025135E0067
:1008C000C7125B006C12570015125400C111510081
:1008D00070114F0021114B00D61049008D104700B8
:1008E0004610440002104200C00F4000800F3E003E
:1008F000420F3C00060F3B00CB0E3800930E370032
:100900005C0E3500270E3400F30D3200C10D3100AE
:10091000900D3000600D2E00320D2D00050D2C00C5
:10092000D90C2B00AE0C2900850C29005C0C27008B
:10093000350C27000E0C2600E80B2400C40B240005
:10094000A00B23007D0B23005A0B2100390B210043
:10095000180B2000F80A1F00D90A1E00BB0A1E004F
:100960009D0A1D00800A1D00630A1C00470A1B0027
:100970002C0A1B00110A1A00F7091A00DD091900D8
:10098000C4091900AB091900920917007B09180066
:10099000630917004C0916003609160020091600D5
:1009A0000A091500F5081500E0081400CC08140029
:1009B000B8081400A4081400900813007D08120061
:1009C0006B08130058081200460812003408110082
:1009D000230811001208110001081100F00710008F
:1009E000E0071000D0071000C0071000B0070F008C
:1009F000A107100091070E0083070F0074070F0076
:100A000065070E0057070E0049070E003B070D0053
:100A10002E070E0020070D0013070D0006070D001E
:100A2000F9060C00ED060D00E0060C00D4060C00E3
:100A3000C8060C00BC060C00B0060C00A4060B0097
:100A400099060C008D060B0082060B0077060B0042
:100A50006C060B0061060A0057060B004C060A00E4
:100A600042060A0038060A002E060A0024060A007A
:100A70001A060A001006090007060A00FD0509000B
:100A8000F4050900EB050900E2050900D905090094
:100A9000D0050900C7050900BE050900B505080015
:100AA000AD050800A50509009C050800940508008F
:100AB0008C050800840508007C0508007405080002
:100AC0006C050700650508005D0507005605080070
:100AD0004E050700470507004005080038050700D8
:100AE000310507002A050700230507001C0506003D
:100AF000160507000F050700080506000205070098
:100B0000FB040600F5040700EE040600E8040600F6
:100B1000E2040700DB040600D5040600CF0406004B
:100B2000C9040600C3040600BD040600B70406009D
:100B3000B1040500AC040600A6040600A0040500EC
:100B40009B04060095040500900406008A04050035
:100B500085040500800406007A040500750405007C
:100B6000700405006B0405006604050061040500BF
:100B70005C04050057040500520405004D040500FF
:100B800048040500430405003E0404003A0405003F
:100B900035040500300404002C040500270404007B
:100BA000230405001E0404001A04040016040500B2
:100BB000110404000D0404000904050004040400E9
:100BC00000040400FC030400F8030400F403040020
:100BD000F0030400EC030400E8030400E403040051
:100BE000E0030400DC030400D8030400D403040081
:100BF000D0030400CC030400C8030300C5030300B2
:100C000024F404D9201BC40C5C0E9804C4095F02B0
:100C100065077101F405F900FB04B300480487007F
:100C2000C10369005803550003034500BE023A00A2
:100C30008402310053022A00290225000402200008
:100C4000E4011C00C8011900AF011700980114004D
:100C500084011300710110006101100051010E00A8
:100C600043010D0036010B002B010B0020010B008E
:100C7000150109000C01090003010800FB00080030
:100C8000F3000800EB000700E4000600DE000600A9
:100C9000D8000600D2000600CC000500C700050001
:100CA000C2000500BD000400B9000400B500040046
:100CB000B1000400AD000400A9000400A500030079
:100CC000A20003009F0004009B00030098000300A3
:100CD0009500020093000300900003008D000200C5
:100CE0008B000300880002008600020084000300DD
:100CF000810002007F0002007D0002007B000200F4
:100D00007900020077000100760002007400020002
:100D100072000100710002006F0002006D0001000E
:100D20006C0002006A000100690002006700010017
:100D3000660001006500010064000200620001001D
:100D400061000100600001005F0002005D00010021
:100D50005C0001005B0001005A0001005900010025
:100D60005800010057000100560001005500010025
:100D70005400010053000000530001005200010024
:100D800051000100500001004F0001004E00000022
:100D90004E0001004D0001004C0001004B0000001E
:100DA0004B0001004A00010049000100480000001A
:100DB0004800010047000100460000004600010015
:100DC0004500000045000100440001004300000010
:100DD0004300010042000000420001004100000009
:100DE00041000100400001003F0000003F00010001
:100DF0003E0000003E0001003D0000003D000100FB
:100E00003C0000003C0000003C0001003B000000F2
:100E10003B0001003A0000003A00010039000000E8
:100E200039000100380000003800000038000100DF
:100E300037000000370001003600000036000000D7
:100E400036000100350000003500000035000100CB
:100E500034000000340000003400010033000000C2
:100E600033000000330001003200000032000000B7
:100E700032000100310000003100000031000100AB
:100E80003000000030000000300001002F000000A2
:100E90002F0000002F0000002F0001002E00000096
:100EA0002E0000002E0001002D0000002D0000008B
:100EB0002D0000002D0001002C0000002C0000007F
:100EC0002C0000002C0001002B0000002B00000073
:100ED0002B0000002B0001002A0000002A00000067
:100EE0002A0000002A00010029000000290000005B
:100EF000290000002900000029000100280000004E
:100F00002800000028000000280000002800010040
:100F10002700000027000000270000002700000035
:100F20002700010026000000260000002600000027
:100F3000260000002600010025000000250000001A
:100F4000250000002500000025000000250001000C
:100F50002400000024000000240000002400000001
:100F600024000100230000002300000023000000F3
:100F700023000000230000002300000023000100E4
:100F800022000000220000002200000022000000D9
:100F900022000000220001002100000021000000CA
:100FA00021000000210000002100000021000000BD
:100FB00021000100200000002000000020000000AF
:100FC00020000000200000002000000020000000A1
:100FD000200001001F0000001F0000001F00000093
:100FE0001F0000001F0000001F0000001F00010084
:100FF0001E0000001E0000001E0000001E00000079
:101000004D383420582059205A20450025753A255E
:1010100030327500253032753A253032750025752D
:101020006420253032753A25303275005A00590057
:10103000580009200000000000000000000000002F
:10104000007FFFE000000000000000000000000042
:101050007000E000000000000000000000000061DF
:10106000F86000000000000000000000000041F8EF
:101070002000000000000000000000000040F02000
:1010800000000000000000000000000040602000A0
:1010900000000000000000000000005801A07F8058
:1010A000000000000000004104005C63A0FFC000DD
:1010B0000000000000002082005EF7A0FFC00000DA
:1010C00000000000002082005EF7A0FFC0000000CA
:1010D000000000004104005C63A07F80000000006D
:1010E0000000008208005801A07F8000000000007E
:1010F0000001041000406020FFC00000000000005C
:101100000104100040F020FFC000000000000000BB
:1011100082080041F820FFC00000000000000041EC
:10112000040061F8603F00000000000000000000C3
:10113000007000E01E0000000000000001FFFF80C2
:101140007FFFE00C0000000000000001FFFF8000B6
:1011500000000000000000000000000000007FFF11
:10116000E00000000000000000000000007000E04F
:10117000000000000000000000000000630C6000A0
:101180000000000000000000000000470E200000EA
:10119000000000000000000000004F0F20000000D1
:1011A0000000000000000000005F0FA00000000031
:1011B00000000000000000005E07A07F800000002B
:1011C00000000000410400406020FFC0000000005B
:1011D00000000020820040F020FFC000000000005E
:1011E000000020820040F020FFC00000000000004E
:1011F000004104004060207F8000000000000000EB
:101200008208005E07A07F8000000000000001044B
:1012100010005F0FA0FFC0000000000000010410DC
:10122000004F0F20FFC000000000000000820800F7
:10123000470E20FFC00000000000000041040063D2
:101240000C603F0000000000000000000000700083
:10125000E01E0000000000000001FFFF807FFFE0B3
:101260000C0000000000000001FFFF8000000053A0
:10127000746F7720424C546F756368004D3238307C
:1012800020503020533930004465706C6F79204213
:101290004C546F756368004D323830205030205305
:1012A000313000424C546F7563682053656C662D75
:1012B00054657374004D3238302050302053313231
:1012C0003000526573657420424C546F756368003A
:1012D0004D3238302050302053313630004D616966
:1012E0006E004D313430205333300A4D31303420CC
:1012F000533232300A446F6E650050726568656122
:101300007420666F7220464C455820504C5553004F
:101310004D61696E004B494C4C45442E200053549E
:101320004F505045442E20005072696E74657220F3
:1013300073746F707065642064756520746F2065C8
:1013400072726F72732E204669782074686520650A
:1013500072726F7220616E6420757365204D393929
:101360003920746F20726573746172742E20285452
:10137000656D706572617475726520697320726540
:101380007365742E205365742069742061667465DA
:10139000722072657374617274696E67290A004EF7
:1013A0006F204C696E65204E756D6265722077699D
:1013B000746820636865636B73756D2C204C617372
:1013C00074204C696E653A20004E6F204368656357
:1013D0006B73756D2077697468206C696E65206E1B
:1013E000756D6265722C204C617374204C696E655A
:1013F0003A2000636865636B73756D206D69736D6A
:10140000617463682C204C617374204C696E653A7A
:1014100020004C696E65204E756D6265722069739F
:10142000206E6F74204C617374204C696E65204E81
:10143000756D6265722B312C204C617374204C6980
:101440006E653A20004D313130004D3331004D385A
:101450003420582059205A20450053442072656199
:1014600064206572726F720A00446F6E652070723C
:10147000696E74696E672066696C650A0020496E42
:1014800076616C6964206578747275646572200099
:101490000000000000000000000000000000964373
:1014A000000096430000C84353544F505045442E0B
:1014B00020005072696E7465722073746F7070656D
:1014C000642064756520746F206572726F72732E6C
:1014D0002046697820746865206572726F72206199
:1014E0006E6420757365204D39393920746F207210
:1014F0006573746172742E202854656D7065726115
:10150000747572652069732072657365742E20533B
:1015100065742069742061667465722072657374E5
:10152000617274696E67290A0053544F50206361D9
:101530006C6C65642062656361757365206F6620FD
:10154000424C546F756368206572726F72202D2053
:10155000726573746172742077697468204D3939CB
:10156000390A0042696C696E656172204C65766566
:101570006C696E6720477269643A0A0036022C0172
:101580006102270191022201C4021D01FC0218011F
:101590003A0313017D030E01C70309011704040177
:1015A0006F04FF00CF04FA003905F500AD05F00027
:1015B0002B06EB00B606E6004E07E100F507DC005F
:1015C000AB08D7007209D2004C0ACD003A0BC80014
:1015D0003C0CC300570DBE00880EB900D30FB400F9
:1015E0003811AF00B612AA005114A5000616A000CB
:1015F000D4179B00BC199600BB1B9100CF1D8C001B
:10160000F21F87002422820059247D009226780050
:10161000C6287300F12A6E000B2D6900102F64009C
:10162000FB305F00CA325A00773455000036500054
:1016300066374B00A9384600C8394100C53A3C001E
:10164000A23B3700623C3200053D2D00913D280051
:10165000063E2300693E1E00BA3E1900FD3E1400FE
:10166000343F0F00603F0A00843F0500A03F0000A8
:10167000B73FFBFFC83FF6FFD63FF1FF6265640A44
:10168000002C2073797374656D2073746F707065AE
:101690006421204865617465725F49443A200048BE
:1016A000656174696E67206661696C656400486590
:1016B0006174696E67206661696C65640048656184
:1016C00074696E67206661696C6564004865617461
:1016D000696E67206661696C65640070012C019019
:1016E000012701B0012201C0011D01F00118011004
:1016F00002130130020E016002090190020401C0D0
:1017000002FF000003FA004003F5008003F000D060
:1017100003EB002004E6007004E100E004DC00407C
:1017200005D700C005D2004006CD00D006C8008015
:1017300007C3003008BE00F008B900C009B400B00B
:101740000AAF00B00BAA00D00CA500000EA00050FC
:101750000F9B00C01096005012910000148C00C026
:10176000158700B0178200B0197D00D01B780000EB
:101770001E730040206E0090226900F02464004037
:10178000275F0090295A00E02B5500102E500020B2
:10179000304B0010324600E033410090353C0010E1
:1017A00037370070383200A0392D00B03A2800A039
:1017B0003B2300603C1E00103D1900903D140010BA
:1017C0003E0F00703E0A00C03E0500003F00004092
:1017D0003FFBFF803FF6FFC03FF1FF4572723A20AA
:1017E0004D494E54454D5020424544004572723A91
:1017F000204D494E54454D50004D494E54454D5095
:1018000020747269676765726564004572723A2078
:101810004D415854454D5020424544004572723A5E
:10182000204D415854454D50004D415854454D5060
:101830002074726967676572656400436172642031
:1018400072656D6F766564004361726420696E73C2
:1018500065727465640000060900FE0701920321A9
:1018600020FFFF08FF07FF00000006000001070738
:10187000060200808080808000800302020601054D
:10188000A0A00507070600005050F850F85050057A
:1018900007070600002078A07028F020050707063B
:1018A0000000C0C810204098180507070600006017
:1018B00090A040A89068020303060104C040800382
:1018C00007070601002040808080402003070706AC
:1018D00001008040202020408005050506000120F1
:1018E000A870A8200505050600012020F820200288
:1018F00003030602FFC04080050101060003F80251
:101900000202060200C0C0050505060001081020FD
:101910004080050707060000708888888888700363
:10192000070706010040C040404040E005070706A9
:101930000000708808708080F8050707060000F82E
:101940001020100808F0050707060000103050901E
:10195000F81010050707060000F880F008088870E6
:10196000050707060000708080F08888700507076B
:10197000060000F8081020202020050707060000B8
:10198000708888708888700507070600007088884E
:1019900078080870020505060200C0C000C0C00239
:1019A00006060602FFC0C000C0408004070706000C
:1019B0000010204080402010050303060002F800BC
:1019C000F80407070601008040201020408005072A
:1019D0000706000070880810200020050707060091
:1019E0000070880868A8A8700507070600007088BE
:1019F00088F8888888050707060000F08888F0883E
:101A000088F00507070600007088808080887005D0
:101A10000707060000F08888888888F00507070611
:101A20000000F88080F08080F8050707060000F8C5
:101A30008080F0808080050707060000708880B8ED
:101A4000888870050707060000888888F8888888D5
:101A500001070706020080808080808080050707DC
:101A600006000038101010109060050707060000EF
:101A70008890A0C0A090880507070600008080809D
:101A8000808080F805070706000088D8A888888825
:101A9000880507070600008888C8A8988888050771
:101AA0000706000070888888888870050707060088
:101AB00000F08888F08080800507070600007088A5
:101AC0008888A89068050707060000F08888F0A0BD
:101AD0009088050707060000788080700808F005E8
:101AE0000707060000F82020202020200507070611
:101AF00000008888888888887005070706000088A5
:101B0000888888885020050707060000888888880C
:101B100088A850050707060000888850205088884C
:101B20000507070600008888885020202005070741
:101B3000060000F80810204080F80307070601009F
:101B4000E08080808080E00505050600018040205F
:101B50001008030707060100E02020202020E005F0
:101B60000303060004205088050101060000F80266
:101B7000020206020580400505050600007008788F
:101B800088780507070600008080B0C88888F005BF
:101B900005050600007080808870050707060000B4
:101BA000080868988888780505050600007088F898
:101BB00080700507070600003048E04040404005BF
:101BC00006060600FF70888878087005070706007B
:101BD000008080B0C888888801070706020080005E
:101BE00080808080800308080601FF2000202020DC
:101BF00020A040040707060000808090A0C0A090AD
:101C0000030707060100C04040404040E0050505CD
:101C1000060000D0A8A8A8A8050505060000B0C8C1
:101C20008888880505050600007088888870050684
:101C3000060600FFF08888F080800506060600FF93
:101C4000788888780808050505060000B0C88080F7
:101C50008005050506000070807008F0040707067F
:101C600000004040E0404040300505050600008887
:101C70008888986805050506000088888850200532
:101C800005050600008888A8A8500505050600007F
:101C900088502050880506060600FF888888780846
:101CA00070050505060000F8102040F80307070638
:101CB00001002040408040402001070706020080CC
:101CC00080808080808003070706010080404020DC
:101CD00040408005020206000268900000000600F5
:101CE00000000000060000000000060000000000E8
:101CF00006000000000006000000000006000000D2
:101D000000000600000000000600000000000600C1
:101D100000000000060000000000060000000000B7
:101D200006000000000006000000000006000000A1
:101D30000000060000000000060000000000060091
:101D40000000000006000000000006000000000087
:101D50000600000000000600000000000600000071
:101D60000000060000000000060000000000060061
:101D70000000000006000000000006000000000057
:101D80000600000000000600000000000600000041
:101D90000000060000000000060000000000060031
:101DA0000000000006000001070706020080008016
:101DB000808080800507070600002070A8A0A8701A
:101DC00020050707060000304040E04050A8050508
:101DD0000506000088705070880507070600008817
:101DE0005020F820F82001070706020080808000BC
:101DF0008080800508080600003048205050209060
:101E000060030101060107A0050707060000F88826
:101E1000B8B8B888F8050707060001700878887810
:101E200000F80505050600012850A0502805030309
:101E3000060001F8080802020206020640800507B3
:101E400007060000F888A88898A8F8050101060090
:101E500006F8040404060003609090600507070676
:101E600000002020F8202000F8040505060003608B
:101E7000902040F0030505060003E020E020E0028A
:101E8000020206020640800508080600FF888888CE
:101E90008898E880800507070600007898987818E9
:101EA0001818020202060202C0C00202020602FF65
:101EB000408003050506000340C04040E0050707D9
:101EC000060001708888887000F805050506000185
:101ED000A0502850A00507070600008890A858B811
:101EE00008080507070600008890B84898203805BC
:101EF0000808060000C040C048D838080805070791
:101F000006000020002040808870050808060000B8
:101F10004020007088F88888050808060000102016
:101F2000007088F8888805080806000020500070B6
:101F300088F888880508080600006890007088F80E
:101F400088880508080600005000708888F888888E
:101F50000508080600002050207088F888880507CA
:101F6000070600003860A0B8E0A0B8050808060021
:101F7000FF70888080887020600508080600004097
:101F80002000F880F080F80508080600000810001E
:101F9000F880F080F8050808060000205000F8805E
:101FA000F080F80507070600005000F880F080F880
:101FB000030808060100804000E0404040E00308BC
:101FC00008060100204000E0404040E00308080609
:101FD000010040A000E0404040E003070706010088
:101FE000A000E0404040E0050707060000704848B8
:101FF000E848487005080806000068900088C8A8EE
:102000009888050808060000402070888888887035
:102010000508080600001020708888888870050868
:10202000080600002050007088888870050808069F
:102030000000689000708888887005080806000015
:102040005000708888888870050505060001885052
:102050002050880508080600FF1070A8A8A8A870DE
:102060004005080806000040208888888888700598
:1020700008080600001020888888888870050808ED
:10208000060000205000888888887005080806002F
:1020900000500088888888887005080806000010AD
:1020A000208850202020200509090600FFC040702C
:1020B0004848704040E00408080601FF609090A086
:1020C0009090E08005080806000040200070087825
:1020D00088780508080600001020007008788878C5
:1020E0000508080600002050007008788878050868
:1020F00008060000689000700878887805070706D1
:102100000000500070087888780508080600002054
:1021100050207008788878050606060000D02878D8
:10212000A0A8500506060600FF7080887020600594
:1021300008080600004020007088F8807005080834
:102140000600001020007088F8807005080806005E
:10215000002050007088F8807005070706000050C6
:10216000007088F880700308080601008040004075
:10217000C04040E003080806010020400040C04085
:1021800040E003080806010040A00040C04040E0D5
:10219000030707060100A00040C04040E005070714
:1021A000060000A040A0107888700508080600000E
:1021B000689000B0C888888805080806000040209C
:1021C00000708888887005080806000010200070DC
:1021D00088888870050808060000205000708888EC
:1021E000887005080806000068900070888888706C
:1021F00005070706000050007088888870050505EF
:102200000600012000F800200507070600FF1070F7
:10221000A8A8A8704005080806000040200088888B
:1022200088986805080806000010200088888898AB
:10223000680508080600002050008888889868050E
:102240000707060000500088888898680509090675
:1022500000FF102000888888F8087004070706012E
:10226000FFC04060506040E00508080600FF5000D5
:1022700088888878087020746F6F206C6F6E672074
:10228000657874727573696F6E2070726576656EAD
:102290007465640A0020636F6C64206578747275DD
:1022A00073696F6E2070726576656E7465640A007E
:1022B0004578747275646572004175746F20686F3B
:1022C0006D6500473238004D6F7665205A004D6FBE
:1022D00076652059004D6F76652058005072657004
:1022E0006172650046494C414D454E542053454E60
:1022F000534F52204F4E00526573746F72652066C3
:1023000061696C73616665004C6F6164207365740C
:1023100074696E67730046494C414D454E542053D5
:10232000454E534F52204F46460053746F726520FE
:1023300073657474696E677300424C546F7563689B
:102340000046696C616D656E74004D6F74696F6EE7
:102350000054656D7065726174757265004D6169D8
:102360006E00507265686561742050455447206363
:102370006F6E66005072656865617420504C412034
:10238000636F6E66005049442D44005049442D440B
:10239000005049442D49005049442D4900504944BA
:1023A0002D50005049442D50002008204661637490
:1023B0000020082046616374002008204D617800E9
:1023C0002008204D6178002008204D617800200809
:1023D000204D696E002008204D696E002008204DB8
:1023E000696E004F6666004F6E20004175746F7411
:1023F000656D700046616E207370656564004661AE
:102400006E2073706565640046616E20737065654B
:1024100064004265640042656400426564004E6F7A
:102420007A7A6C65004E6F7A7A6C65004E6F7A7AB4
:102430006C6500436F6E74726F6C0053746F7265DD
:102440002073657474696E67730042656400426549
:102450006400426564004E6F7A7A6C65004E6F7A54
:102460007A6C65004E6F7A7A6C650046616E2073F7
:10247000706565640046616E207370656564004632
:10248000616E2073706565640054656D706572617E
:10249000747572650020204E6F7A7A6C653A200060
:1024A0002000506C6561736520776169742E2E2E53
:1024B0000048656174696E67206E6F7A7A6C65009A
:1024C0005052494E54205041555345440020204E0F
:1024D0006F7A7A6C653A2000200068656174206E1E
:1024E0006F7A7A6C652E0050726573732062757412
:1024F000746F6E20746F005052494E5420504155F5
:102500005345440020204E6F7A7A6C653A2000745F
:102510006F20636F6E74696E75652E2E2E00616E6E
:102520006420707265737320627574746F6E0049F5
:102530006E736572742066696C616D656E740050AF
:1025400052494E54205041555345440020204E6F6F
:102550007A7A6C653A2000200066696C616D656E60
:1025600074206C6F6164005761697420666F72003B
:102570005052494E54205041555345440020204E5E
:102580006F7A7A6C653A2000200066696C616D652F
:102590006E74206578747275646500576169742083
:1025A000666F72005052494E542050415553454475
:1025B00000746F20726573756D65005761697420D2
:1025C000666F72207072696E74005052494E5420CA
:1025D00050415553454400022020506C616E6E6599
:1025E0007242756666657242797465733A2000209E
:1025F00046726565204D656D6F72793A2000436FB4
:102600006D70696C65643A204A756E2032302032F4
:102610003031390A00207C20417574686F723A208D
:102620002853616D40546563686E6F6C6F67794FB6
:1026300075746C6574290A00323031392D30362DAD
:1026400030352031323A303000204C6173742055DF
:102650007064617465643A2000546563686E6F6CE1
:102660006F67794F75746C65740A004D61726C699F
:102670006E0020536F6674776172652052657365D2
:10268000740A00205761746368646F672052657331
:1026900065740A002042726F776E206F7574205245
:1026A000657365740A002045787465726E616C20EC
:1026B00052657365740A00506F77657255700A0031
:1026C00073746172740A006572726F722077726936
:1026D00074696E6720746F2066696C650A00456EC8
:1026E0006473746F70732025632025632025632035
:1026F000256300205A3A0020593A0020583A0065D4
:102700006E6473746F7073206869743A2000446F4C
:102710006E6520736176696E672066696C652E0A46
:10272000004D3239005072696E74207061757365A6
:10273000640047312058302046323030300000509D
:1027400072696E742061626F72746564004C6F61AF
:10275000642046696C616D656E74004732380A47C3
:1027600031205A353020463230300A4D3130392050
:10277000533231300A4739322045300A473120453B
:102780003130302046323030004E6F2053442063C9
:10279000617264005072696E742066726F6D2053AE
:1027A000440053746F70207072696E7400526573C8
:1027B000756D65207072696E740056657273696F0D
:1027C0006E202020202056312E302E310050617591
:1027D0007365207072696E7400496E69745F53444A
:1027E00043617264004D323100436F6E74726F6CDE
:1027F00000507265706172650054756E65004375B6
:1028000073746F6D205072656865617400496E66FF
:102810006F2073637265656E000600060006000691
:1028200000060006000600060006003FC01F800FDD
:1028300000060006000F001F803FC00600060006CD
:102840000006000600060006000600060007F80065
:102850000C0C00100200200100600180400080404C
:1028600003E04001C04000804000004000006000E4
:10287000002000001000000C0C0007F80001FE0012
:102880000303000400800800401800601000207C52
:102890000020380020100020000020000020000050
:1028A0006000004000008003030001FE00FFFFFF06
:1028B0007F80FFC0FFC0FFC07F807F80FFC0FFC060
:1028C000FFC03F001E000C005A204F6666736574FF
:1028D000004D363030204230004368616E6765201D
:1028E00066696C616D656E74005A204F666673652B
:1028F0007400466C6F7700466C6F7700466C6F779C
:102900000046616E2073706565640046616E2073D9
:10291000706565640046616E207370656564004291
:1029200065640042656400426564004E6F7A7A6CAB
:1029300065004E6F7A7A6C65004E6F7A7A6C65002E
:102940005370656564005370656564005370656518
:1029500064004D61696E0050726568656174205055
:102960004C4120456E64005072656865617420506A
:102970004C41204265640050726568656174205066
:102980004C410050726570617265004361703A4558
:102990004D455247454E43595F5041525345523A77
:1029A000300A004361703A434153455F4C49474800
:1029B000545F4252494748544E4553533A300A00F7
:1029C0004361703A544F47474C455F4C4947485420
:1029D000533A300A004361703A534F4654574152BC
:1029E000455F504F5745523A310A004361703A4CA7
:1029F0004556454C494E475F444154413A310A00DF
:102A00004361703A5A5F50524F42453A310A00438F
:102A100061703A4155544F4C4556454C3A310A0085
:102A20004361703A5052494E545F4A4F423A310A1C
:102A3000004361703A50524F47524553533A300A5F
:102A4000004361703A4155544F5245504F52545FC4
:102A500054454D503A310A004361703A4545505251
:102A60004F4D3A310A004649524D574152455F4E4B
:102A7000414D453A4D61726C696E20546563686ED4
:102A80006F6C6F67794F75746C6574202847697433
:102A90006875622920534F555243455F434F444563
:102AA0005F55524C3A68747470733A2F2F6769748B
:102AB0006875622E636F6D2F4D61726C696E466929
:102AC000726D776172652F4D61726C696E20505224
:102AD0004F544F434F4C5F56455253494F4E3A3136
:102AE0002E30204D414348494E455F545950453A98
:102AF000436F70794D6173746572203330302045B7
:102B0000585452554445525F434F554E543A312024
:102B1000555549443A63656465326132662D3431F6
:102B200061322D343734382D396231322D633535E9
:102B30006336326633363766660A00205A002059FB
:102B400000580020204D61783A2000205A0020597A
:102B500000580020204D696E3A20004F6E20004F33
:102B6000666600536F667420656E6473746F70736D
:102B70003A200020643A0020693A0020703A00238D
:102B8000646566696E65202044454641554C545F36
:102B90004B64200023646566696E652020444546C9
:102BA00041554C545F4B69200023646566696E652E
:102BB000202044454641554C545F4B7020005049FD
:102BC00044204175746F74756E652066696E697313
:102BD000686564212050757420746865206C617389
:102BE00074204B702C204B6920616E64204B642054
:102BF000636F6E7374616E74732066726F6D2062A2
:102C0000656C6F7720696E746F20436F6E666967BD
:102C100075726174696F6E2E680A005049442041D4
:102C200075746F74756E65206661696C65642120CA
:102C300074696D656F75740A00504944204175745C
:102C40006F74756E65206661696C656421205465DA
:102C50006D706572617475726520746F6F2068693C
:102C600067680A00204B643A2000204B693A200034
:102C7000204B703A20000A20436C61737369632013
:102C8000504944200A002054753A2000204B753AE0
:102C90002000206D61783A2000206D696E3A200096
:102CA00020643A200020626961733A20004F666612
:102CB0000A004661646520486569676874200042BF
:102CC0006564204C6576656C696E672000466169B5
:102CD0006C656420746F20656E61626C652042656E
:102CE00064204C6576656C696E670A004F66667392
:102CF000657473206170706C696564004572723A26
:102D000020546F6F206661722100546F6F206661DE
:102D1000722066726F6D207265666572656E63659E
:102D200020706F696E740A0053746570732F6D6D37
:102D3000004A65726B00416363656C65726174691A
:102D40006F6E0056656C6F63697479005A204F6628
:102D50006673657400436F6E74726F6C0046696CC5
:102D60002E204469612E0046696C2E204469612E34
:102D7000004F6666004F6E20004520696E206D6D25
:102D80003300436F6E74726F6C0043616E6E6F74CC
:102D900020656E746572207375626469723A2000F2
:102DA000022E2E004D61696E0020204E6F7A7A6CE3
:102DB000653A200020004261636B004D696E696DC9
:102DC000756D2054656D70206973203137302E0089
:102DD00048656174696E67206661696C6564004569
:102DE000787472756465206D6F72650052657375D5
:102DF0006D65207072696E7400524553554D4520C3
:102E00004F5054494F4E533A0020204E6F7A7A6CFF
:102E1000653A20006368616E6765006F66207468BC
:102E2000652066696C616D656E7400576169742018
:102E3000666F72207374617274005052494E542050
:102E40005041555345440020204E6F7A7A6C653AC4
:102E50002000200066696C616D656E7420756E6C73
:102E60006F6164005761697420666F720050524947
:102E70004E54205041555345440020706F7369747F
:102E8000696F6E206F7574206F662072616E676562
:102E90002E0A003F50726F6265200052756E6E6997
:102EA0006E6720696E204452592D52554E206D6F29
:102EB00064650A00473239204175746F20426564A9
:102EC000204C6576656C696E670A0028422961634B
:102ED0006B00284629726F6E740028522969676852
:102EE0007400284C29656674003F28562965726273
:102EF0006F7365206C6576656C20697320696D70F1
:102F00006C61757369626C652028302D34292E0A36
:102F100000426164205A2076616C75650A004E6F2C
:102F20002062696C696E65617220677269640A006B
:102F300046696C652064656C657465643A00446537
:102F40006C6574696F6E206661696C65642C2046DF
:102F5000696C653A20006F70656E206661696C650A
:102F6000642C2046696C653A200020746F6F206CD9
:102F70006F6E6720657874727573696F6E207072FA
:102F80006576656E7465640A0020636F6C64206505
:102F90007874727573696F6E2070726576656E7481
:102FA00065640A00627573793A20706175736564AF
:102FB00020666F7220696E7075740A00627573798D
:102FC0003A2070617573656420666F722075736551
:102FD000720A00627573793A2070726F6365737359
:102FE000696E670A004D363030004B494C4C454401
:102FF0002E20004B494C4C20636175736564206240
:1030000079204B494C4C20627574746F6E2F706937
:103010006E0A004B494C4C45442E20004B494C4C09
:103020002063617573656420627920746F6F206D11
:1030300075636820696E6163746976652074696D73
:1030400065202D2063757272656E7420636F6D6DDF
:10305000616E643A2000506C65617365207265731F
:103060006574005052494E5445522048414C5445D5
:1030700044005072696E7465722068616C74656496
:103080002E206B696C6C28292063616C6C6564214F
:103090000A00656E7175657565696E6720220000AE
:1030A00000000000009643000000000000A0420065
:1030B00000A04200000041000000005761726E69EC
:1030C0006E673A20486F6D696E672042756D70209B
:1030D00044697669736F72203C20310A0002020451
:1030E0000000004100000041000000400000964345
:1030F000000096430000C843FF01FF5072656865F9
:103100006174205045544720456E640050726568D4
:1031100065617420504554472042656400507265D3
:103120006865617420504554470050726570617243
:1031300065004D343238004D383000537769746380
:103140006820706F776572206F6666004D383100B9
:10315000526573657420424C546F756368004D323C
:103160003830205030205331363000424C546F7587
:1031700063682053656C662D54657374004D323856
:103180003020503020533132300050726568656114
:103190007420504554470050726568656174205032
:1031A0004C4100436F6F6C646F776E004368616ED3
:1031B00067652066696C616D656E7400537769742C
:1031C000636820706F776572206F6E004469736169
:1031D000626C65207374657070657273004D38346D
:1031E0000053657420686F6D65206F666673657443
:1031F0007300426564204C6576656C696E670047B4
:1032000032380A47323900486F6D65205A0047321C
:1032100038205A00486F6D652059004732382059D0
:1032200000486F6D652058004732382058004175BE
:10323000746F20686F6D6500473238004D6F76659A
:103240002061786973004D61696E004D6F7665206D
:1032500058004D6F76652059004D6F7665205A00F5
:103260004578747275646572004D6F766520302EF6
:10327000316D6D004D6F766520316D6D004D6F764F
:10328000652031306D6D004D6F7665206178697312
:10329000004578747275646572004D6F7665205ACA
:1032A000004D6F76652059004D6F766520580000FF
:1032B000060900FE000000000001090008FE0000F1
:1032C00005080806000040F0C888889878100508AE
:1032D00008060000C0F88888888888F80505050673
:1032E00000012030F830200508080600002070F8A2
:1032F00020202020E00509090600FF2070A8A8B8BA
:10330000888870200509090600FFE080C0B0A82861
:103310003028280509090600FFF8A88888888888C9
:10332000A8F8050A0A0600FE205050505088A8A8A8
:10333000887003030306000340A040290A002062AE
:10334000797465733B2063726320005365747469FC
:103350006E67732053746F726564202800202863A1
:10336000616C63756C6174656429210A0020213DDC
:103370002000454550524F4D20435243206D697304
:103380006D61746368202D202873746F72656429E1
:103390002000290A002062797465733B2063726300
:1033A00020002073746F7265642073657474696E95
:1033B00067732072657472696576656420280020E1
:1033C0004D61726C696E3D563431290A00284545BD
:1033D00050524F4D3D00454550524F4D207665723D
:1033E00073696F6E206D69736D617463682000008E
:1033F000002110422063308440A550C660E7700869
:103400008129914AA16BB18CC1ADD1CEE1EFF131EF
:1034100012100273325222B5529442F772D66239B8
:103420009318837BB35AA3BDD39CC3FFF3DEE3623F
:1034300024433420040114E664C774A44485546A08
:10344000A54BB528850995EEE5CFF5ACC58DD553CF
:1034500036722611163006D776F6669556B4465B58
:10346000B77AA719973887DFF7FEE79DD7BCC7C49F
:1034700048E5588668A7784008611802282338CCA8
:10348000C9EDD98EE9AFF9488969990AA92BB9F52F
:103490005AD44AB77A966A711A500A333A122AFDF8
:1034A000DBDCCBBFFB9EEB799B588B3BBB1AABA6FF
:1034B0006C877CE44CC55C222C033C600C411CAE48
:1034C000ED8FFDECCDCDDD2AAD0BBD688D499D970F
:1034D0007EB66ED55EF44E133E322E511E700E9F98
:1034E000FFBEEFDDDFFCCF1BBF3AAF599F788F885F
:1034F00091A981CAB1EBA10CD12DC14EF16FE18030
:1035000010A100C230E3200450254046706760B926
:10351000839893FBA3DAB33DC31CD37FE35EF3B17F
:10352000029012F322D2323542145277625672EA76
:10353000B5CBA5A89589856EF54FE52CD50DC5E2CF
:1035400034C324A01481046674476424540544DB06
:10355000A7FAB79987B8975FE77EF71DC73CD7D31F
:1035600026F2369106B01657667676154634564CD6
:10357000D96DC90EF92FE9C899E9898AB9ABA9446F
:1035800058654806782768C018E1088238A3287D66
:10359000CB5CDB3FEB1EFBF98BD89BBBAB9ABB75BF
:1035A0004A545A376A167AF10AD01AB32A923A2E36
:1035B000FD0FED6CDD4DCDAABD8BADE89DC98D260F
:1035C0007C076C645C454CA23C832CE01CC10C1F46
:1035D000EF3EFF5DCF7CDF9BAFBABFD98FF89F175F
:1035E0006E367E554E745E932EB23ED10EF01E7C2A
:1035F0003C3E5E2B3D3F2F5B5D3B2C2A225C005600
:1036000054726176206D696E005654726176206D39
:10361000696E005654726176206D696E00566D6950
:103620006E00566D696E00566D696E00566D61785C
:10363000204500566D6178204500566D6178204523
:1036400000566D6178205A00566D6178205A0056F8
:103650006D6178205A00566D6178205900566D6171
:1036600078205900566D6178205900566D61782098
:103670005800566D6178205800566D6178205800CA
:103680004D6F74696F6E00416D6178204500416D2A
:103690006178204500416D6178205A00416D617864
:1036A000205A00416D6178205900416D61782059A0
:1036B00000416D6178205800416D617820580041CB
:1036C0002D74726176656C00412D74726176656C43
:1036D00000412D7265747261637400412D726574CE
:1036E0007261637400416363656C00416363656C80
:1036F000004D6F74696F6E0056652D6A65726B00C0
:1037000056652D6A65726B0056652D6A65726B0091
:10371000567A2D6A65726B00567A2D6A65726B0057
:1037200056792D6A65726B0056792D6A65726B0049
:1037300056792D6A65726B0056782D6A65726B003A
:1037400056782D6A65726B0056782D6A65726B002B
:103750004D6F74696F6E004573746570732F6D6D76
:10376000004573746570732F6D6D005A73746570C6
:10377000732F6D6D005A73746570732F6D6D0059E2
:1037800073746570732F6D6D005973746570732F4A
:103790006D6D005873746570732F6D6D0058737480
:1037A0006570732F6D6D004D6F74696F6E0061757C
:1037B000746F25692E67006563686F3A004D323477
:1037C000004D323320257300544845524D414C2062
:1037D00052554E4157415900546865726D616C20D5
:1037E00052756E61776179002569730025696D20D6
:1037F000256973002569682025696D202569730096
:10380000256964202569682025696D202569730074
:1038100025697920256964202569682025696D203E
:103820002569730048617264636F64656420446550
:103830006661756C742053657474696E6773204C8F
:103840006F616465640A00E8030000F4010000642D
:10385000000000A00F00000000C8420000C84200A5
:1038600000A0400000A041AE47BC42AE47BC4200B1
:1038700000C8433D8AC04220204D383531205A00CF
:103880005A2D50726F6265204F66667365742028EA
:103890006D6D293A0A0020440020490020204D3354
:1038A00030312050005049442073657474696E674C
:1038B000733A0A0020460020420020480020204D94
:1038C0003134352053004D6174657269616C206834
:1038D000656174757020706172616D657465727375
:1038E0003A0A00205A0020204D3432302053004143
:1038F00075746F20426564204C6576656C696E67EF
:103900003A0A00205A0020590020204D323036203B
:103910005800486F6D65206F66667365743A0A00DB
:10392000204500205A002059002058002042002045
:10393000540020204D323035205300416476616EB2
:103940006365643A20533C6D696E5F6665656472B9
:103950006174653E20543C6D696E5F74726176657A
:103960006C5F66656564726174653E20423C6D699A
:103970006E5F7365676D656E745F74696D655F6DAD
:10398000733E20583C6D61785F78795F6A65726B31
:103990003E205A3C6D61785F7A5F6A65726B3E20AB
:1039A000453C6D61785F655F6A65726B3E0A002019
:1039B000540020520020204D32303420500041630A
:1039C00063656C65726174696F6E2028756E6974C9
:1039D000732F7332293A20503C7072696E745F61A4
:1039E0006363656C3E20523C726574726163745F00
:1039F000616363656C3E20543C74726176656C5FF4
:103A0000616363656C3E0A00204500205A0020591E
:103A10000020204D3230312058004D6178696D759D
:103A20006D20416363656C65726174696F6E2028F7
:103A3000756E6974732F7332293A0A00204500208D
:103A40005A0020590020204D3230332058004D615B
:103A500078696D756D206665656472617465732043
:103A600028756E6974732F73293A0A002045002067
:103A70005A0020590020204D3932205800537465D7
:103A800070732070657220756E69743A0A00202088
:103A90004D3230302044300A0020204D323030206A
:103AA00044002044697361626C65640A0046696C75
:103AB000616D656E742073657474696E67733A0026
:103AC00020204D3134392043203B20556E697473DA
:103AD00020696E2043656C736975730A0020204766
:103AE0003231202020203B20556E69747320696E8E
:103AF000206D6D0A0050726F62696E6720666169A1
:103B00006C65640A0050726F62696E672066616955
:103B10006C656400205A3A200020593A2000426522
:103B20006420583A2000486F6D6520257325732561
:103B300073206669727374002066697273740A0078
:103B40005A0059005800486F6D6520004572726F29
:103B5000722077726974696E6720746F20454550D2
:103B6000524F4D210A0000002100240027002A00A6
:103B70002D003000330001010000040107010A019B
:103B800000002200250028002B002E003100340008
:103B900002010000050108010B01000020002300C4
:103BA000260029002C002F00320000010000030134
:103BB00006010901050505050705080808080202B0
:103BC00002020A0A080804040404010101010101B7
:103BD00001010303030303030303040707070C0C9A
:103BE0000C0C0C0C0C0C0202020206060606060661
:103BF00006060B0B0B0B0B0B0B0B01021020200806
:103C00000810204010204080020102010804020137
:103C100001020408102040808040201008040201A6
:103C200080040201804020100804020108040201FF
:103C30000102040810204080010204081020408086
:103C400000000A0B02090C0D0E0807030401000016
:103C50000000000000000000000000000000000064
:103C60000000000000000000000000001211100021
:103C70000000000000000000000000000000000044
:103C8000000000000000526573656E643A20006F0A
:103C90006B0066696C616D656E743A20007A5F6DC9
:103CA000696E3A2000795F6D61783A2000785F6D27
:103CB000696E3A20005265706F7274696E67206594
:103CC0006E6473746F70207374617475730A00008E
:103CD000F200F00011241FBECFEFD1E2DEBFCDBF56
:103CE00000E00CBF13E0A0E0B2E0E2ECFBE302E096
:103CF0000BBF02C007900D92AA3FB107D9F725E18B
:103D0000AAEFB3E001C01D92AE39B207E1F71EE1A0
:103D1000C9E6DEE100E006C021970109802FFE011F
:103D20000F94431DC836D10780E00807A9F70F9408
:103D300070090D94D01D0C9400002F923F924F9269
:103D40005F926F927F928F929F92AF92BF92CF922B
:103D5000DF92EF92FF920F931F93CF93DF93CDB734
:103D6000DEB7CF55D1090FB6F894DEBF0FBECDBF79
:103D70000091990C20E6029F80011124075E144FE8
:103D80008091A40C80FF1AC0E7EBF7E384917F01D8
:103D90003FEFE31AF30A811102C0780104C00E94C8
:103DA00013EAF701F3CFD7018D917D01882319F034
:103DB0000E9413EAF8CF8AE00E9413EA81E090E0C3
:103DC0009093C30C8093C20C1092190410921804A3
:103DD0008FE380932204109221041092200484E047
:103DE000E4E1F4E0DF011D928A95E9F7F8018081B2
:103DF0000F5F1F4F8032D1F38E34C9F4818190ED73
:103E0000980F9A3020F08D3211F08B3281F4DF015F
:103E100012969D012F5F3F4F8C9180538A3010F492
:103E2000D901F7CFFD01119680818032D9F3F0934B
:103E3000CC0CE093CB0C7F01BFEFEB1AFB0A108197
:103E40006AE270E0C7010F94981D009731F0FC0101
:103E5000319780818032E1F311821D3431F11435C4
:103E600021F1173411F1E7EBF7E384918F010F5F34
:103E70001F4F882321F00E9413EAF801F6CF6091CA
:103E8000CB0C7091CC0C86E895E00E94A75082E2A2
:103E90000E9413EA8AE00E9413EA1092C30C109267
:103EA000C20C0F94BE020C94F235C701FC012081B4
:103EB00001962032D9F320532A30A8F61093220419
:103EC00080E090E06AE03196DF0111972C91022E9C
:103ED000000C330B20533109689FA001699F500DDE
:103EE0001124C901840F951F208120532A3058F3D3
:103EF0009093210480932004DF0131962C9120328D
:103F0000D9F31D34D1F48E31910591F03CF4873111
:103F1000910571F08C31910581F40AC085379105C6
:103F200064F08737910524F0803AE3E09E0729F496
:103F3000B0931904A09318047DC010921904109234
:103F400018040091CB0CEE24E394F12CFD01319682
:103F50002C91222309F46EC02132A9F41D3499F466
:103F60008032910581F4F0931904E093180463E220
:103F700070E0CF010F94981D009711F40C941D2947
:103F8000DC011C9257C021542A31A0F5AF01FA017F
:103F900030814F5F5F4F3032D1F340ED430F4A30F5
:103FA00040F043ED430F423020F03B3211F00C94CF
:103FB0001135AF01622F70E0DB0133E0B595A795B5
:103FC0003A95E1F7AC5EBB4F2770670102C0CC0C9D
:103FD000DD1C2A95E2F796013C91232B2C93411589
:103FE000510511F0401B01C040E0DB01A650BC4F61
:103FF0004C930AC02091180430911904232B21F40A
:10400000B0931904A0931804208121542A3110F48C
:10401000DF019CCFDF01AD014F5F5F4F2C9120533B
:104020002A3010F4DA01F7CFFD01119620812032F9
:10403000D9F3EECF809122048D3411F40C941D2914
:10404000843511F40C94CF34873409F00CCF2090D0
:104050002004309021042CE12216310409F4CBC550
:104060008CF444E0241631043CF452E0251631046B
:10407000D4F537FE2AC011CF84E02816310409F4A4
:1040800075C50BCF9AE22916310409F4E9C75CF42F
:10409000BDE12B16310409F4F9C6EEE12E16310408
:1040A00009F4F7C6FACEFBE52F16310409F477C7F9
:1040B0002CE52216310409F477C73AE523163104BA
:1040C00009F0EBCE10921F04E8CE0E94EFF08111B0
:1040D000E4CE80910502882309F4DFCE0E943AAC39
:1040E0000E94E2BADACE0E94EFF08111D6CE809122
:1040F0000502882309F4D1CE0E943AAC82E50E94E1
:104100001AE9882309F438C10E94B8E84B015C0120
:1041100020E030E0A9010F94CB15882309F458C1A1
:104120008091440490914504A0914604B0914704C5
:104130008CA79DA7AEA7BFA7209148043091490442
:1041400040914A0450914B0428AB39AB4AAB5BAB6E
:104150008091E10C9091E20CA091E30CB091E40C01
:104160008CAF9DAFAEAFBFAF2091E50C3091E60CA8
:104170004091E70C5091E80C2CAB3DAB4EAB5FABE4
:104180009C01AD016CA57DA58EA59FA50F94CB15B7
:1041900081110DC02CA93DA94EA95FA968A979A9D3
:1041A0008AA99BA90F94CB15882309F411C111E0AA
:1041B00032E02316310409F010E020E030E0A901DC
:1041C000C501B4010F94CB15881F8827881F1817C5
:1041D00059F080E090E0A0E8BFEB28968CAF9DAF4F
:1041E000AEAFBFAF28970AC020E030E040E85FE301
:1041F00028962CAF3DAF4EAF5FAF28972CA53DA5BD
:104200004EA55FA56CAD7DAD8EAD9FAD0F94471AE9
:1042100068AF79AF8AAF9BAF28A939A94AA95BA932
:104220006CA97DA98EA99FA90F94471A6B017C01E7
:1042300028AD39AD4AAD5BADCA01B9010F94301656
:104240002B013C01A7019601C701B6010F9430165E
:104250009B01AC01C301B2010F94481A0F94B31C27
:1042600024966CAF7DAF8EAF9FAF249720E030E0F7
:1042700040E05FE30F9430162B013C01A50194014F
:10428000C501B4010F9430164B015C01A3019201EA
:10429000C301B2010F9430169B01AC01C501B401FA
:1042A0000F94471A0F94B31C28962CAD3DAD4EAD1C
:1042B0005FAD28970F9430164B015C01C701B60122
:1042C000905824962CAD3DAD4EAD5FAD24970F9424
:1042D000241BA50194010F9430166B017C012CADB9
:1042E0003DAD4EAD5FAD6CA57DA58EA59FA50F9490
:1042F000481A20E030E040E05FE30F9430169B0165
:10430000AC01C701B6010F94481A2CA53DA54EA5D6
:104310005FA50F94471A6B017C012CA93DA94EA9FA
:104320005FA968A979A98AA99BA90F94481A20E0D6
:1043300030E040E05FE30F9430162B013C012496FF
:104340002CAD3DAD4EAD5FAD249768AD79AD8AAD76
:104350009BAD0F94241BA50194010F9430169B0173
:10436000AC01C301B2010F94481A28A939A94AA97E
:104370005BA90F94471A14C089E40E941AE98823A4
:1043800029F00E94B8E86B017C0103C0C12CD12C3C
:1043900076018AE40E941AE98823E9F00E94B8E8CD
:1043A0006CAF7DAF8EAF9FAF20E030E0A901C701B9
:1043B000B6010F94CB1581111BC020E030E0A9019C
:1043C0006CAD7DAD8EAD9FAD0F94CB15811110C03E
:1043D000EBEEF7E0B8C320E030E0A901C701B60179
:1043E0000F94CB158823A1F31CAE1DAE1EAE1FAEDD
:1043F000D701C601B0588CA79DA7AEA7BFA72CAD0B
:104400003DAD4EAD5FAD505828AB39AB4AAB5BAB61
:104410009C01AD01BC01CD010F9430164B015C0134
:1044200028A939A94AA95BA9CA01B9010F94301674
:104430009B01AC01C501B4010F94481A0F94B31C41
:1044400068966CAF7DAF8EAF9FAF68978091440444
:1044500090914504A0914604B09147048CAB9DAB6C
:10446000AEABBFABA7019601BC01CD010F94481ABA
:1044700028966CAF7DAF8EAF9FAF289720914804F0
:104480003091490440914A0450914B0424962CAF3A
:104490003DAF4EAF5FAF24972CAD3DAD4EAD5FADA0
:1044A00024966CAD7DAD8EAD9FAD24970F94481AC8
:1044B0006C966CAF7DAF8EAF9FAF6C978091E10C27
:1044C0009091E20CA091E30CB091E40C2C968CAF8F
:1044D0009DAFAEAFBFAF2C9728962CAD3DAD4EAD86
:1044E0005FAD2897BC01CD010F94471A6B017C0189
:1044F0002091E50C3091E60C4091E70C5091E80CCE
:1045000060962CAF3DAF4EAF5FAF60976C962CAD11
:104510003DAD4EAD5FAD6C9760966CAD7DAD8EAD33
:104520009FAD60970F94471A4B015C0180914C043A
:1045300090914D04A0914E04B0914F0464968CAFBD
:104540009DAFAEAFBFAF64979C01AD016091E90C28
:104550007091EA0C8091EB0C9091EC0C0F94471A3F
:1045600068AF79AF8AAF9BAFA70196016CA57DA517
:104570008EA59FA50F9430162B013C01A501940137
:1045800068A979A98AA99BA90F9430169B01AC014F
:10459000C301B2010F94481A2B013C01A5019401FB
:1045A0006CA57DA58EA59FA50F9430164B015C01CF
:1045B000A701960168A979A98AA99BA90F94301629
:1045C0009B01AC01C501B4010F94471AA3019201EC
:1045D0000F94BB1A6B017C0120E030E0A9010F941D
:1045E000CB1587FF0AC02BED3FE049EC50E4C70133
:1045F000B6010F94481A6B017C0192E02916310430
:1046000051F42BED3FE049EC50E4C701B6010F94A3
:10461000471A6B017C0120E030E0A901C701B60117
:104620000F94CB15811126C02C962CAD3DAD4EAD0F
:104630005FAD2C976CA97DA98EA99FA90F94CB156E
:10464000811118C060962CAD3DAD4EAD5FAD609749
:1046500024966CAD7DAD8EAD9FAD24970F94CB1598
:10466000811108C08BEDC82E8FE0D82E89ECE82E82
:1046700080E4F82EA701960168966CAD7DAD8EADF5
:104680009FAD68970F9430169B01AC010F943016C4
:104690004B015C0128AD39AD4AAD5BADCA01B90132
:1046A0000F9430169B01AC01C501B4010F94481A58
:1046B0000F94B31C4B015C012FE632E143E85AE34F
:1046C0000F94CB1587FD39C2C501B4010F94BD1BF2
:1046D0000F94911B22967FAF6EAF2297DB01AB2B1D
:1046E00031F4E1E0F0E02296FFAFEEAF2297409088
:1046F00050045090510460905204709053042296DC
:104700002EAD3FAD2297B90180E090E00F94CF1518
:104710004B015C019B01AC01C701B6010F94241B46
:104720006CAB7DAB8EAB9FABA501940168AD79AD51
:104730008AAD9BAD0F94241B68966CAF7DAF8EAF96
:104740009FAF6897A30192016091ED0C7091EE0C00
:104750008091EF0C9091F00C0F94471AA5019401F1
:104760000F94241BA0966CAF7DAF8EAF9FAFA09728
:104770002CA93DA94EA95FA9CA01B9010F94301611
:1047800020E030E040E05FE30F9430169B01AC0185
:1047900060E070E080E89FE30F94471A2C966CAFBE
:1047A0007DAF8EAF9FAF2C9764968CAD9DADAEADB7
:1047B000BFAD649789879A87AB87BC874D865E8635
:1047C0006F86788A60912C0270912D02072E000C62
:1047D000880B990B0F94D11520919C0230919D026A
:1047E00040919E0250919F020F9430162AE037EDBF
:1047F00043E25CE30F94301660966CAF7DAF8EAFF2
:104800009FAF60970E9435FD9B01AC0128533F4F3D
:104810004F4F5F4F64962CAF3DAF4EAF5FAF649785
:104820004CA45DA46EA47FA422242394312C39E1EE
:1048300038AF22964EAD5FAD22974215530509F46D
:1048400038C10E946B660E9435FDDC01CB01649685
:104850002CAD3DAD4EAD5FAD6497821B930BA40BA9
:10486000B50BB7FD11C00E9435FD9B01AC0128536B
:104870003F4F4F4F5F4F64962CAF3DAF4EAF5FAF92
:10488000649780E00E9445B738AD315038AF33238C
:1048900009F441C028A939A94AA95BA92C966CAD95
:1048A0007DAD8EAD9FAD2C970F9430166B017C01C2
:1048B0009201A3016CA97DA98EA99FA90F9430161E
:1048C000A70196010F94481A6B017C019201A30184
:1048D0002C966CAD7DAD8EAD9FAD2C970F943016A0
:1048E0004B015C0128A939A94AA95BA96CA97DA93A
:1048F0008EA99FA90F9430169B01AC01C501B4018C
:104900000F94471A2B013C01C601D70188AB99AB24
:10491000AAABBBAB4DC0B10180E090E00F94CF15C6
:104920002CA93DA94EA95FA90F9430164B015C013B
:104930000F94211B6B017C01C501B4010F94A91CCC
:104940004B015C01A70196016CA57DA58EA59FA5D5
:104950000F9430162B013C012CAD3DAD4EAD5FAD3B
:10496000C501B4010F943016A30192010F94481AA7
:104970002B013C01A50194016CA57DA58EA59FA5E9
:104980000F9430164B015C012CAD3DAD4EAD5FADCB
:10499000C701B6010F9430169B01AC01C501B401EB
:1049A0000F94471A68AB79AB8AAB9BAB49E148AF30
:1049B0009201A30128966CAD7DAD8EAD9FAD289779
:1049C0000F94481A69837A838B839C8328A939A919
:1049D0004AA95BA96C966CAD7DAD8EAD9FAD6C9711
:1049E0000F94481A6D837E838F83988768962CADC9
:1049F0003DAD4EAD5FAD689769857A858B859C85A9
:104A00000F94481A69877A878B879C87A0962CAD6C
:104A10003DAD4EAD5FADA0976D857E858F85988944
:104A20000F94481A6D877E878F87988B80919B02A1
:104A3000882321F0CE0101960E940FB6C0903E0D52
:104A400089819A81AB81BC8188A399A3AAA3BBA3C6
:104A50008D819E81AF81B8858CA39DA3AEA3BFA39A
:104A600089859A85AB85BC8588A799A7AAA7BBA786
:104A7000AE01485D5F4FBE016C5D7F4FCE018096F9
:104A80000E9430816096ECACFDAC0EAD1FAD60971E
:104A90009E01235F3F4FAE01485D5F4FBE016C5DDD
:104AA0007F4FCE0180960E9413745FEF251A350A5E
:104AB000C0CEC0903E0D8091E10C9091E20CA0918F
:104AC000E30CB091E40C88A399A3AAA3BBA38091A3
:104AD000E50C9091E60CA091E70CB091E80C8CA34A
:104AE0009DA3AEA3BFA38091E90C9091EA0CA09185
:104AF000EB0CB091EC0C88A799A7AAA7BBA7AE01B5
:104B0000485D5F4FBE016C5D7F4FCE0180960E9475
:104B100030816096ECACFDAC0EAD1FAD60972DEE14
:104B20003CE0AE01485D5F4FBE016C5D7F4FCE0142
:104B300080960E9413740E94475D0E9408EAADC9E6
:104B40000E9413EAF80184918F010F5F1F4F8111BA
:104B5000F7CFE9E4F2E084918F010F5F1F4F8823C4
:104B600009F49BC90E9413EAF801F5CF80E50E9481
:104B70001AE9882329F00E9478E86B017C0103C0C0
:104B8000C12CD12C760183E50E941AE9882361F0BB
:104B90000E94B8E820E030E04AE754E40F94301671
:104BA0000F94911B6B017C010E94806980914602E9
:104BB000811105C060E08FE592E00E944B6F0E947A
:104BC00008EA8091CD0C9091CE0CA091CF0CB091C1
:104BD000D00CC80ED91EEA1EFB1E0E9435FDDC015A
:104BE000CB018C199D09AE09BF09B7FF56C980E0FA
:104BF0000E9445B7F2CF0E94806980E00E944D5A22
:104C00000E94495B11E01093E70A88E50E94EBE8F7
:104C1000E82E89E50E94EBE8082F8AE50E94EBE880
:104C2000F82EE11004C0011104C0182705C00111BD
:104C300002C010E001C0182F0E943D5D111105C097
:104C4000E11003C0002309F440C020E030E040EA56
:104C500050E46091A0137091A1138091A2139091E0
:104C6000A3130F94481A6093E90C7093EA0C809395
:104C7000EB0C9093EC0C20914C0430914D0440913E
:104C80004E0450914F040F946E1C18165CF4198258
:104C90001A821B821C82BE016F5F7F4F89EE9CE0EF
:104CA0000E945A5C111105C0E11003C0011107C038
:104CB0000CC080E090E00E94D2B41123B9F381E0EF
:104CC00090E00E94D2B4111103C0FF2009F4D0C0BB
:104CD0008091E80A882321F08091E90A81111FC0A0
:104CE00060E08CE992E00E944B6FE7EBF7E3849180
:104CF0008F010F5F1F4F811103C0EBE8F2E004C08A
:104D00000E9413EAF801F3CF84918F010F5F1F4FC8
:104D1000882309F4ADC00E9413EAF801F5CF0E9480
:104D200031E8409098135090991360909A137090C6
:104D30009B1380919C1390919D13A0919E13B09111
:104D40009F138CA79DA7AEA7BFA780914C049091FD
:104D50004D04A0914E04B0914F048093E90C9093C0
:104D6000EA0CA093EB0CB093EC0C20E030E046E1B1
:104D700053E4C301B2010F94481A20E030E040E947
:104D800052E40F94481A4B015C016093E10C70935C
:104D9000E20C8093E30C9093E40C20E030E046E1D9
:104DA00053E46CA57DA58EA59FA50F94481A20E01D
:104DB00030E040E551E40F94481A6B017C016093A8
:104DC000E50C7093E60C8093E70C9093E80CA3013C
:104DD0009201C501B4010F94471A4B015C012FE603
:104DE00032E143E85AEB0F946E1C87FF02C00C942B
:104DF000223521E230E046E953E4C501B4010F94C5
:104E0000CB15181614F40C9422352CA53DA54EA5EF
:104E10005FA5C701B6010F94471A6B017C012FE60D
:104E200032E143E85AEB0F946E1C87FF02C00C94EA
:104E3000223521E230E046E953E4C701B6010F9480
:104E4000CB15181614F40C94223519821A821B8281
:104E50001C829E012F5F3F4F4CE454E065EE7CE0E6
:104E600081EE9CE00E94695B82E090E00E94D2B4F7
:104E70000E9431E8809191138093E70A0E942F5B92
:104E800083E0809345020E94863907C80E9401AEE4
:104E900004C8C0904404D0904504E0904604F090CB
:104EA000470488E50E941AE9811109C020E030E03A
:104EB00040E952E4C701B6010F94471A02C00E94AC
:104EC000B8E868A379A38AA39BA3C0904804D090B4
:104ED0004904E0904A04F0904B0489E50E941AE9E5
:104EE000811109C020E030E040E551E4C701B6017E
:104EF0000F94471A02C00E94B8E86B017C016983D5
:104F00007A838B839C8320919813309199134091DD
:104F10009A1350919B1368A179A18AA19BA10F9428
:104F2000471A4B015C012FE632E143E85AEB0F943C
:104F30006E1C87FF02C00C944D1F22E430E044E653
:104F400053E4C501B4010F94CB15181614F40C9456
:104F50004D1F20919C1330919D1340919E135091B1
:104F60009F13C701B6010F94471A6B017C012FE60E
:104F700032E143E85AEB0F946E1C87FF02C00C9499
:104F80004D1F21E230E84FE853E4C701B6010F940A
:104F9000CB15181614F40C944D1F0C94423581E077
:104FA00080931F040C944D1F85E40E941AE9B82ECB
:104FB000811102C00E948069AEEA8A2EA2E09A2E78
:104FC000B4E4CB2EB4E0DB2E15EDE12E1CE0F12E87
:104FD00000E010E0A12CD4018D914D010E941AE94E
:104FE000882339F1F60140805180628073800E94ED
:104FF000B8E8D6016D937D938D939C9313970330FE
:10500000C1F0A30192010F94471A9B01AC01F70173
:1050100060817181828193810F94481AD7016D93C9
:105020007D938D939C931397C8010E94AC5DAA2435
:10503000A3940F5F1F4FB4E0CB0ED11CE4E0EE0E43
:10504000F11C0430110539F6AA2019F00E9431E84C
:1050500003C0B1100E9492420E9486390C944D1FE9
:105060000E94EFF081110C944D1F8091050288235E
:1050700011F40C944D1F89E40E941AE9082F88232B
:1050800021F00E9488E8F62E01C0F12C8AE40E94EB
:105090001AE9182F882321F00E9488E8E62E01C023
:1050A000E12C002319F0F2E0FF1530F0112391F00C
:1050B000F2E0CF2ECE1470F4EEEBF2E084918F018B
:1050C0000F5F1F4F882311F40C944D1F0E9413EAA9
:1050D000F801F4CF0E943D5D002341F12091680D5D
:1050E0003091690D4F2D4203B001439F700D112483
:1050F0008091640D9091650D680F791F072E000C4B
:10510000880B990B0F94D115209198133091991316
:1051100040919A1350919B130F94481A6093E10C9D
:105120007093E20C8093E30C9093E40C112341F113
:1051300020916A0D30916B0D5E2D5203B001539F8B
:10514000700D11248091660D9091670D680F791F85
:10515000072E000C880B990B0F94D11520919C13EE
:1051600030919D1340919E1350919F130F94481AB4
:105170006093E50C7093E60C8093E70C9093E80C39
:1051800080E50E94EBE88823A1F10E94A9E888232A
:1051900081F10023B1F020E030E040E952E4609179
:1051A000E10C7091E20C8091E30C9091E40C0F946F
:1051B000481A6093E10C7093E20C8093E30C909397
:1051C000E40C1123B1F020E030E040E551E46091BF
:1051D000E50C7091E60C8091E70C9091E80C0F942F
:1051E000481A6093E50C7093E60C8093E70C90935B
:1051F000E80C86E40E941AE98823D9F00E94B8E8F6
:105200006B017C0120E030E0A9010F946E1C1816A0
:1052100084F420E030E040E752E4C701B6010F9487
:10522000241B60939C0270939D0280939E02909336
:105230009F020E94E2BA0C944D1F8091200490912D
:1052400021048337910509F4C0C60CF0BEC08D342B
:10525000910509F4CCC30CF056C08931910509F4CD
:10526000DCC21CF58431910509F4CFC17CF4813195
:10527000910509F455C22CF4029708F4C9C10C94A5
:105280004D1F429709F4CAC50C944D1F86319105F4
:1052900009F49CC20CF496C28731910509F49CC2B2
:1052A000489709F4AFC20C944D1F8F31910509F452
:1052B0006AC394F48B31910509F4D4C20CF4B3C2DF
:1052C0008C31910509F40BC34E9711F00C944D1FCE
:1052D0000E9452B30C944D1F8A32910509F47FC38A
:1052E0002CF4809709F405C30C944D1F8B34910561
:1052F00009F479C38C34910511F00C944D1F0E9470
:10530000E3F10C944D1F8936910509F4D7C484F557
:105310008335910509F47DC5DCF48035910509F4E8
:1053200037C54CF48E34910511F00C944D1F0E943A
:10533000423E0C944D1F8135910509F44FC58235CD
:10534000910511F00C944D1F10921E040C944D1FEA
:105350008535910509F495C50CF460C58C3591052A
:1053600009F4AAC58836910509F445C30C944D1F6C
:105370008E36910509F496C39CF48B36910509F499
:10538000FBC40CF4E0C48C36910509F444C48D369A
:10539000910511F00C944D1F0E946E3C0C944D1F12
:1053A0008037910509F43BC40CF48FC38137910514
:1053B00009F439C48237910511F00C944D1F0E94F5
:1053C00080690E9486390C944D1F8831A1E09A07AC
:1053D00011F40C9481320CF082C0883C910509F4E0
:1053E000B4C60CF040C08937910509F42DC61CF5F0
:1053F0008637910509F4EDC574F48537910511F0F0
:105400000C944D1F60E080911804909119040E9443
:10541000686F0C944D1F8737910509F411C68837C2
:10542000910511F00C944D1F81E08093E70A809361
:1054300091130C944D1F8139910509F40BC634F476
:105440008C38910509F41CC40C944D1F8B399105BF
:1054500009F450C48E3B910511F00C944D1F0E942D
:10546000C83A0C944D1F8E3C910509F4D2C7FCF448
:105470008B3C910509F4D7C684F4893C910511F061
:105480000C944D1FBEEAEB2EB2E0FB2E04E81DE0AB
:1054900084E9C82E8DE0D82EACC68C3C910509F469
:1054A000DFC68D3C910509F447C70C944D1F8C3D18
:1054B000910509F4CCC74CF4833D910511F00C948F
:1054C0004D1F0E945AA30C944D1F8D3D910509F468
:1054D000CDC7823E910509F4E5C70C944D1F843A6F
:1054E000E1E09E0711F40C94BD330CF042C083360A
:1054F00021E0920709F485C0ECF48D3241E0940775
:1055000011F40C9458333CF48C32914011F40C9407
:105510002E330C944D1F8E32B1E09B0711F40C9486
:105520005C338F32914011F00C944D1F0E94E39E2A
:105530000C944D1F8139F1E09F0711F40C94B333A3
:105540004CF48039914011F00C944D1F0E948069F9
:105550000C944D1F823941E0940711F40C94B83338
:105560008A39914011F00C944D1F0E942A9E0C9490
:105570004D1F863FA1E09A0711F40C946134ECF4BE
:105580008C3AE1E09E0711F40C9459343CF4853ACE
:10559000914011F40C94C1330C944D1F843F31E0C1
:1055A000930711F40C945D34853F914011F00C94F5
:1055B0004D1F0E948CC60C944D1F833553E09507F8
:1055C000E1F07CF4873FB1E09B0711F40C94653463
:1055D0008835924011F00C944D1F0E940C360C94AB
:1055E0004D1F803AF3E09F0709F4C0C1873E934006
:1055F00011F40C94BB340C944D1FE7EBF7E30C94BF
:105600007734EBEEF7E00C94A734EDE2F3E09AC0C8
:10561000A0901804B090190480E50E941AE988232C
:1056200059F00E9478E86B017C0111E0672B682B30
:10563000692B31F410E004C010E0C12CD12C7601AC
:1056400083E50E941AE98823F1F00E94B8E820E07F
:1056500030E04AE754E40F9430160F94911B6B012D
:105660007C01111112C0672B682B692B71F4A114F6
:10567000B10459F0D5018C91882339F061E0C5015E
:105680000E94686F07C0112391F360E082E093E00D
:105690000E944B6F83E090E09093C30C8093C20C08
:1056A00081E08093650A0E9480690E9408EAC11423
:1056B000D104E104F104E1F08091CD0C9091CE0C85
:1056C000A091CF0CB091D00CC80ED91EEA1EFB1EC3
:1056D0000E9435FDDC01CB018C199D09AE09BF0983
:1056E000B7FF1AC08091650A81110C94983514C0D7
:1056F0008091650A882321F080E00E9445B7F8CFA9
:105700008091E31060E0882319F083EF92E002C0FB
:105710008DED92E00E944B6F1092650A0C944D1F24
:1057200060E085E193E00E944B6F5F988A989FB795
:10573000F894809108018E7F809308019FBF129892
:105740000C944D1F84918F010F5F1F4F882321F010
:105750000E9413EAF801F6CF1092691310926813B1
:1057600084E191E10E9455D18BE1E4E1F1E1DE01B8
:10577000159601900D928A95E1F780911211909102
:1057800013119C838B838CE093E09A83898340E0A0
:1057900050E0BE016F5F7F4F8DE693E00E94D042E4
:1057A000CE0101960E94C2B6EEE1F3E084918F0132
:1057B0000F5F1F4F882311F40C944D1F0E9413EAB2
:1057C000F801F4CF0E9482400C944D1F1092E31018
:1057D0001092E4100C944D1FE0911804F0911904FC
:1057E0008081882329F0803209F410823196F8CF25
:1057F00040E061E080911804909119040E94EC440B
:105800000C944D1F8091E410882319F081E080935F
:10581000E3100E9487F10C944D1F1092E3100E9438
:10582000E3F10C944D1F8091E410882311F40C9443
:105830004D1F83E50E941AE9882311F40C944D1F33
:105840000E9488E8AB01BC0140935F135093601342
:1058500060936113709362138EEA92E10E946CF878
:105860000C944D1F8091E410811103C0E0E5F3E03A
:105870002AC0EEE3F3E084918F010F5F1F4F88236E
:1058800021F00E9413EAF801F6CF60915F13709146
:10589000601380916113909162134AE00E941AEAAA
:1058A0008FE20E9413EA60915B1370915C13809108
:1058B0005D1390915E134AE00E941AEA8AE00E940A
:1058C00013EA0C944D1F84918F010F5F1F4F8823A3
:1058D00011F40C944D1F0E9413EAF801F4CF40E03C
:1058E00060E080911804909119040E94EC440C949B
:1058F0004D1F8091E31081110E948069E09018048F
:10590000F090190480E50E94EBE8182F882319F025
:105910000E94A9E8182F8091E410882311F40C94B8
:105920004D1F412F61E0C7010E94EC4483E50E94B6
:105930001AE9882381F00E9488E8AB01BC014093FA
:105940005F135093601360936113709362138EEA38
:1059500092E10E946CF88091E410882319F081E0B4
:105960008093E31011110C944D1F53CF80911804B4
:105970009091190421E02093E21040E060E00E9441
:10598000EC440C944D1F88EB90E10E94116968A3D0
:1059900079A38AA39BA3BE016F5F7F4FCE01809640
:1059A0000E9426E960E0CE0101960E94686FE7EB55
:1059B000F7E384918F010F5F1F4F882321F00E942E
:1059C00013EAF801F6CFBE016F5F7F4F81E693E0E7
:1059D0000E94A7508AE00E9413EA0C944D1F0E9477
:1059E000683F0C944D1F0E9487F10C944D1F0E943C
:1059F00077DE0C944D1F88E690E00E943E5E811198
:105A00000C944D1F8091A40C83FF02C00C944D1F79
:105A100083E50E941AE9882309F440C00E94B8E88F
:105A20000F948C1B7093CE146093CD1480E00E9471
:105A3000D6620E94B8E820E030E04AEA52E40F94CF
:105A4000CB1518163CF00E9477DE60E085E793E006
:105A50000E944B6F0E94B8E82091660A3091670A55
:105A60004091680A5091690A0F946E1C1816B4F49C
:105A700080E393E09F938F9380911A0490E00196C6
:105A80009F938F938EE693E09F938F931F920E9434
:105A90006CE10FB6F894DEBF0FBECDBF0E94C57299
:105AA0000C944D1F8EE40E941AE9882311F40C9483
:105AB0004D1F0E9488E860935A1570935B15809380
:105AC0005C1590935D150C944D1F83E50E94EBE8E7
:105AD000882359F083E50E941AE9882319F00E946F
